:020000040800F2
:1000000000280020711300080113000807130008DE
:100010000D13000813130008191300080000000056
:100020000000000000000000000000001F13000896
:100030002B130008000000003713000843130008CA
:10004000B9130008B9130008B9130008B913000860
:10005000B9130008B9130008B9130008B913000850
:10006000B9130008B9130008B9130008B913000840
:10007000B9130008B9130008B9130008B913000830
:10008000B9130008B9130008B9130008B913000820
:10009000B9130008B9130008B9130008B913000810
:1000A000B9130008B9130008B9130008B913000800
:1000B00051130008B913000800000000B91300082C
:1000C000B91300080000000000000000B913000888
:1000D00000000000B9130008B91300080000000078
:1000E000B9130008B9130008B91300080000000094
:1000F0000000000000000000000000000000000000
:0C01000000000000000000005FF808F1A3
:10010C0010B5054C237833B9044B13B10448AFF345
:10011C0000800123237010BD24000020000000008B
:10012C00002A000808B5034B1BB103490348AFF381
:10013C00008008BD0000000028000020002A0008F4
:10014C0080F0004002E000BF81F0004142001FBF80
:10015C005FEA410392EA030F7FEA226C7FEA236C89
:10016C006AD04FEA1262D2EB1363C1BFD21841407E
:10017C0048404140B8BF5B42192B88BF704710F014
:10018C00004F40F4000020F07F4018BF404211F0B7
:10019C00004F41F4000121F07F4118BF494292EA1F
:1001AC00030F3FD0A2F1010241FA03FC10EB0C004B
:1001BC00C3F1200301FA03F100F0004302D54942D8
:1001CC0060EB4000B0F5000F13D3B0F1807F06D385
:1001DC0040084FEA310102F10102FE2A51D2B1F17D
:1001EC00004F40EBC25008BF20F0010040EA030072
:1001FC007047490040EB0000013A28BFB0F5000FF2
:10020C00EDD2B0FA80FCACF1080CB2EB0C0200FAA7
:10021C000CF0AABF00EBC25052421843BCBFD040F6
:10022C001843704792F0000F81F4000106BF80F470
:10023C0000000132013BB5E74FEA41037FEA226C33
:10024C0018BF7FEA236C21D092EA030F04D092F0FE
:10025C00000F08BF0846704790EA010F1CBF002032
:10026C00704712F07F4F04D1400028BF40F000408F
:10027C00704712F100723CBF00F50000704700F0AF
:10028C00004343F0FE4040F4000070477FEA2262D6
:10029C0016BF08467FEA23630146420206BF5FEAA7
:1002AC00412390EA010F40F4800070474FF00003A7
:1002BC0004E000BF10F0004348BF40425FEA000C6E
:1002CC0008BF704743F0964301464FF000001CE016
:1002DC0050EA010208BF70474FF000030AE000BF6C
:1002EC0050EA010208BF704711F0004302D54042AA
:1002FC0061EB41015FEA010C02BF8446014600201C
:10030C0043F0B64308BFA3F18053A3F50003BCFA36
:10031C008CF2083AA3EBC25310DB01FA02FC6344E3
:10032C0000FA02FCC2F12002BCF1004F20FA02F2EA
:10033C0043EB020008BF20F00100704702F12002DD
:10034C0001FA02FCC2F1200250EA4C0021FA02F23E
:10035C0043EB020008BF20EADC7070474FF0FF0C43
:10036C001CEAD0521EBF1CEAD15392EA0C0F93EA3E
:10037C000C0F6FD01A4480EA010C400218BF5FEAE0
:10038C0041211ED04FF0006343EA501043EA511153
:10039C00A0FB01310CF00040B1F5000F3EBF49004D
:1003AC0041EAD3715B0040EA010062F17F02FD2A51
:1003BC001DD8B3F1004F40EBC25008BF20F0010034
:1003CC00704790F0000F0CF0004C08BF49024CEA4B
:1003DC00502040EA51207F3AC2BFD2F1FF0340EADD
:1003EC00C250704740F400004FF00003013A5DDC4E
:1003FC0012F1190FDCBF00F000407047C2F100028F
:10040C00410021FA02F1C2F1200200FA02FC5FEA7B
:10041C00310040F1000053EA4C0308BF20EADC70C5
:10042C00704792F0000F00F0004C02BF400010F437
:10043C00000F013AF9D040EA0C0093F0000F01F0E4
:10044C00004C02BF490011F4000F013BF9D041EA06
:10045C000C018FE70CEAD15392EA0C0F18BF93EA08
:10046C000C0F0AD030F0004C18BF31F0004CD8D132
:10047C0080EA010000F00040704790F0000F17BFB9
:10048C0090F0004F084691F0000F91F0004F14D0FF
:10049C0092EA0C0F01D142020FD193EA0C0F03D157
:1004AC004B0218BF084608D180EA010000F000405A
:1004BC0040F0FE4040F40000704740F0FE4040F435
:1004CC00400070474FF0FF0C1CEAD0521EBF1CEAD4
:1004DC00D15392EA0C0F93EA0C0F69D0A2EB0302F2
:1004EC0080EA010C49024FEA402037D04FF080538C
:1004FC0043EA111143EA10130CF000408B4238BF51
:10050C005B0042F17D024FF4000C8B4224BF5B1A5E
:10051C0040EA0C00B3EB510F24BFA3EB510340EAAC
:10052C005C00B3EB910F24BFA3EB910340EA9C005A
:10053C00B3EBD10F24BFA3EBD10340EADC001B01CA
:10054C0018BF5FEA1C1CE0D1FD2A3FF650AF8B426E
:10055C0040EBC25008BF20F0010070470CF0004C7B
:10056C004CEA50207F32C2BFD2F1FF0340EAC250A6
:10057C00704740F400004FF00003013A37E792F067
:10058C00000F00F0004C02BF400010F4000F013AC5
:10059C00F9D040EA0C0093F0000F01F0004C02BFC0
:1005AC00490011F4000F013BF9D041EA0C0195E729
:1005BC000CEAD15392EA0C0F08D142027FF47DAFC2
:1005CC0093EA0C0F7FF470AF084676E793EA0C0FB2
:1005DC0004D14B023FF44CAF08466EE730F0004CB0
:1005EC0018BF31F0004CCAD130F000427FF45CAF40
:1005FC0031F000437FF43CAF5FE700BF4FEA4002AD
:10060C00B2F1FE4F0FD34FF09E03B3EB12620DD934
:10061C004FEA002343F0004310F0004F23FA02F09E
:10062C0018BF404270474FF00000704712F1610F45
:10063C0001D1420205D110F0004008BF6FF000401C
:10064C0070474FF00000704780B500AF00F020F805
:10065C000C4B1B68012B13D10B4B1B685A1C0A4902
:10066C000A60184600F0E2F8074B1B68032B02DD0A
:10067C00054B00221A60054B1B68184600F046FD1E
:10068C0000BF80BD7400002040000020000000204E
:10069C0080B400AF1A4B1B681A4A82FB03129210EB
:1006AC00DB17D31A184A1360154B1968154B83FBCB
:1006BC0001239A10CB17D21A13469B0013445B00EC
:1006CC00CA1A114B5A60114B1B680E4A82FB03125B
:1006DC009210DB17D31A0C4A93600C4B1968094B18
:1006EC0083FB01239A10CB17D21A13469B00134499
:1006FC005B00CA1A044BDA6000BFBD4680BC704771
:10070C006400002067666666980000206800002080
:10071C0080B582B000AF78607B68092B7FD801A2CE
:10072C0052F823F0590700086F07000885070008E6
:10073C009B070008B1070008C7070008DD07000881
:10074C00F3070008090800081508000800223F21DB
:10075C00354801F02EF901224021334801F029F9E6
:10076C005DE000220621304801F023F901227921B5
:10077C002D4801F01EF952E000225B212A4801F0BD
:10078C0018F901222421284801F013F947E000222E
:10079C004F21254801F00DF901223021224801F0AA
:1007AC0008F93CE0002266211F4801F002F9012201
:1007BC0019211D4801F0FDF831E000226D211A4885
:1007CC0001F0F7F801221221174801F0F2F826E0A7
:1007DC0000227D21144801F0ECF80122022112487C
:1007EC0001F0E7F81BE0002207210F4801F0E1F8C7
:1007FC00012278210C4801F0DCF810E000227F2166
:10080C00094801F0D6F80AE000226F21064801F0F1
:10081C00D0F801221021044801F0CBF800BF00BF32
:10082C000837BD4680BD00BF000C014080B582B0CA
:10083C0000AF78607B68032B4AD801A252F823F0F2
:10084C005D0800087D0800089D080008BD08000828
:10085C0000221021214801F0ACF80122E0211F48B0
:10086C0001F0A7F81E4B1B681846FFF751FF30E04C
:10087C0000222021194801F09CF80122D0211748B0
:10088C0001F097F8164B5B681846FFF741FF20E024
:10089C0000224021114801F08CF80122B0210F48B0
:1008AC0001F087F80E4B9B681846FFF731FF10E0FC
:1008BC0000228021094801F07CF8012270210748B0
:1008CC0001F077F8064BDB681846FFF721FF00E0D4
:1008DC0000BF00BF0837BD4680BD00BF0008014007
:1008EC009800002080B483B000AF00237B6007E049
:1008FC00084A7B68002142F823107B6801337B6037
:10090C007B68022BF4DD00BF00BF0C37BD4680BCFA
:10091C00704700BF5400002080B582B000AF7860F3
:10092C00074A7B6852F82330012B03D1FFF7DAFF1B
:10093C00012300E0002318460837BD4680BD00BFE8
:10094C005400002080B582B000AF00237B6055E0DE
:10095C002E4A7B68134419782D4A7B6813440A4647
:10096C001A702C4A7B6813441978284A7B68134404
:10097C000A461A70284A7B6832F813301946274801
:10098C0001F000F803461946224A7B6813440A46D4
:10099C001A701F4A7B6813441A781C497B680B44F5
:1009AC001B789A4227D1194A7B6813441A78194943
:1009BC007B680B441B789A421DD1194A7B681344FF
:1009CC001A7814497B680B441B789A4213D0114A4D
:1009DC007B6813441978124A7B6813440A461A70D0
:1009EC000C4A7B6813441B78002B04D10D4A7B689E
:1009FC00012142F823107B6801337B607B68022B5A
:100A0C00A6DD00BF00BF0837BD4680BD48000020F2
:100A1C004400002050000020040000200008014089
:100A2C004C0000205400002080B500AF074B1B6821
:100A3C00012B08D14FF41061054800F0D2FF4FF4A0
:100A4C00FA7000F07DFB00BF80BD00BF7800002075
:100A5C00000C014080B500AF074B1B68012B08D17F
:100A6C004FF49051054800F0BCFF4FF4FA7000F0C1
:100A7C0067FB00BF80BD00BF78000020000C014068
:100A8C0080B500AF074B1B68012B08D14FF41051F8
:100A9C00054800F0A6FF4FF4FA7000F051FB00BFC0
:100AAC0080BD00BF78000020000C014080B500AF75
:100ABC00714B1B680E3B032B00F2CD8001A252F848
:100ACC0023F000BFE10A0008090B00087B0B0008AB
:100ADC00ED0B000800224FF47C51684800F069FFD0
:100AEC00FA2000F02DFB644B0F221A60644B1B683C
:100AFC00644A1360644B02221A60B3E0FFF794FF60
:100B0C000020FFF709FF0346002B12D000224FF400
:100B1C0010615A4800F04DFF574B10221A605B4B86
:100B2C001B68584A1360584B03221A60FA2000F0D5
:100B3C0007FB0120FFF7F0FE0346002B0CD0514BB6
:100B4C001B68632B03DD4F4B00221A6004E04D4BF6
:100B5C001B6801334B4A13600220FFF7DDFE03468E
:100B6C00002B7AD0474B1B68454A136075E0FFF7A2
:100B7C0071FF0020FFF7D0FE0346002B12D000229D
:100B8C004FF490513D4800F014FF3B4B11221A607A
:100B9C003F4B1B683B4A13603B4B04221A60FA2004
:100BAC0000F0CEFA0120FFF7B7FE0346002B0CD065
:100BBC00344B1B68632B03DD324B00221A6004E0BC
:100BCC00304B1B6801332F4A13600220FFF7A4FE41
:100BDC000346002B43D02B4B1B682C4A13603EE082
:100BEC00FFF74EFF0020FFF797FE0346002B14D0B3
:100BFC00264B1A68264B1B681A44214B1B689A42D9
:100C0C0008D01F4B05221A60204B02221A60204B81
:100C1C0003221A60184B00221A600120FFF77CFE99
:100C2C000346002B0CD0174B1B68632B03DD154BB5
:100C3C0000221A6004E0134B1B680133114A136045
:100C4C000220FFF769FE0346002B0AD00D4B1B68F0
:100C5C000F4A136005E000BF04E000BF02E000BFD4
:100C6C0000E000BF044B1B680D2B03DD054B1B681C
:100C7C00084A136000BF80BD6C000020000C0140CE
:100C8C000C000020600000206800002010000020F4
:100C9C00140000206400002080B500AF634B1B687B
:100CAC00042B00F2968001A252F823F0CD0C000820
:100CBC000F0D00083F0D0008770D0008A70D000868
:100CCC0000224FF4E0615A4800F073FE00224FF40A
:100CDC006051574800F06DFE544B01221A604FF4DE
:100CEC007A7000F0F9F9534B1B68184600F00EFAB5
:100CFC00514B1B68514A1360514B1B68514A13608E
:100D0C0070E001224FF40451494800F052FE0022D9
:100D1C004FF4F051464800F04CFE4A4B1B68002B38
:100D2C0059D1424B02221A60474B1B68454A13604B
:100D3C0051E001224FF488513D4800F03AFE002268
:100D4C004FF438513A4800F034FE3C4B1B68002BF2
:100D5C0043D1364B03221A60394B1B68374A136058
:100D6C00354B1B68374A136037E001224FF4406162
:100D7C002F4800F01EFE00224FF44C512C4800F07E
:100D8C0018FE2E4B1B68002B29D1284B04221A600D
:100D9C002D4B1B68294A136021E001224FF420617E
:100DAC00234800F006FE00224FF45451204800F076
:100DBC0000FE244B1B68002B13D11C4B01221A6024
:100DCC001D4B1B681D4A13601D4B1B681D4A13608D
:100DDC0007E000BF06E000BF04E000BF02E000BF78
:100DEC0000E000BFFFF730FC104B1B680D2B1ADC2A
:100DFC00164B1B68012B0DD1104B1B68013B0F4A86
:100E0C001360104B1B68013B0E4A13604FF47A7051
:100E1C0000F062F90020FFF77FFD0346002B02D0A3
:100E2C00024B0E221A6000BF80BD00BF6C00002078
:100E3C00000C0140000000200C0000206400002089
:100E4C00140000206800002010000020700000201A
:100E5C0080B500AF00F0ACFA00F00EF800F0C8F866
:100E6C0000F046F8034801F001FAFFF715FFFFF711
:100E7C001DFEFAE7A800002080B590B000AF07F186
:100E8C00180328220021184601F0ACFD3B1D00225E
:100E9C001A605A609A60DA601A610223BB610123FE
:100EAC00BB621023FB6200237B6307F11803184617
:100EBC0000F0B0FD0346002B01D000F007F90F2322
:100ECC007B600023BB600023FB6000233B6100239D
:100EDC007B613B1D0021184601F01CF80346002BDA
:100EEC0001D000F0F3F800BF4037BD4680BD0000D4
:100EFC0090B587B000AF07F1080300221A605A6062
:100F0C009A60DA603B4600221A605A60344B4FF00C
:100F1C0080421A60324B41F63F725A60304B0022CD
:100F2C009A602F4B0922DA602D4B00221A612C4B50
:100F3C0000229A612A4801F049F90346002B01D09E
:100F4C0000F0C4F84FF48053BB6007F10803194656
:100F5C00234801F0DFFA0346002B01D000F0B6F86D
:100F6C0000233B6000237B603B4619461C4801F084
:100F7C00ABFC0346002B01D000F0A8F8184B5B68C3
:100F8C001846FFF793F903464FF07E511846FFF7CA
:100F9C00DDF803461C46124BDB681846FFF786F952
:100FAC0003464FF07E511846FFF7D0F8034619461A
:100FBC002046FFF7D3F903460A491846FFF782FA91
:100FCC00034609491846FFF7C9F903461846FFF7C7
:100FDC0015FB0346054A136000BF1C37BD4690BD88
:100FEC00A80000200024F44A00007A44F0000020FD
:100FFC0080B586B000AF07F1080300221A605A6072
:10100C009A60DA60284B9B69274A43F0040393618A
:10101C00254B9B6903F004037B607B68224B9B6927
:10102C00214A43F0080393611F4B9B6903F00803AB
:10103C003B603B680022F0211C4800F0BAFC002207
:10104C0043F67F711A4800F0B4FCF023BB60012317
:10105C00FB6000233B6102237B6107F10803194607
:10106C00124800F015FB43F67F73BB600123FB6055
:10107C0000233B6102237B6107F1080319460C48EE
:10108C0000F006FB4FF4E043BB600023FB60012340
:10109C003B6107F108031946044800F0F9FA00BF58
:1010AC001837BD4680BD00BF00100240000801404B
:1010BC00000C014080B582B000AF786000F05AF8A7
:1010CC00FFF740FC00BF0837BD4680BD80B400AFC1
:1010DC0072B600BFFEE7000080B483B000AF78604A
:1010EC00074B1B687A6892FBF3F3064A1360064BB6
:1010FC0000221A6000BF0C37BD4680BC704700BF91
:10110C00F0000020840000207000002080B483B028
:10111C0000AF7860074B1B687A6892FBF3F3064AC2
:10112C001360064B00221A6000BF0C37BD4680BC12
:10113C00704700BFF00000208800002074000020E1
:10114C0080B483B000AF7860074B1B687A6892FB61
:10115C00F3F3064A1360064B00221A6000BF0C37EB
:10116C00BD4680BC704700BFF00000208C00002002
:10117C007800002080B400AF294B1B68002B0BDDDE
:10118C00274B1B68013B264A1360254B1B68002B21
:10119C0002DC244B01221A60234B1B68002B0BDD55
:1011AC00214B1B68013B204A13601F4B1B68002B13
:1011BC0002DC1E4B01221A601D4B1B68002B0BDD41
:1011CC001B4B1B68013B1A4A1360194B1B68002B05
:1011DC0002DC184B01221A60174B1B68002B0BDD2D
:1011EC00154B1B68013B144A1360134B1B68002BF7
:1011FC0002DC124B01221A60114B1B68002B0BDD19
:10120C000F4B1B68013B0E4A13600D4B1B68002BE8
:10121C0002DC0C4B01221A6000BFBD4680BC70473B
:10122C008400002070000020880000207400002042
:10123C008C00002078000020900000207C00002012
:10124C00940000208000002080B485B000AF154BC6
:10125C009B69144A43F001039361124B9B6903F0A1
:10126C000103BB60BB680F4BDB690E4A43F0805334
:10127C00D3610C4BDB6903F080537B607B680A4BBA
:10128C005B68FB60FB6823F0E063FB60FB6843F08A
:10129C008063FB60044AFB68536000BF1437BD4693
:1012AC0080BC7047001002400000014080B584B043
:1012BC0000AF78607B681B68B3F1804F13D10C4B87
:1012CC00DB690B4A43F00103D361094BDB6903F083
:1012DC000103FB60FB68002200211C2000F0A1F937
:1012EC001C2000F0BAF900BF1037BD4680BD00BF0E
:1012FC000010024080B400AFFEE780B400AFFEE700
:10130C0080B400AFFEE780B400AFFEE780B400AF5E
:10131C00FEE780B400AF00BFBD4680BC704780B410
:10132C0000AF00BFBD4680BC704780B400AF00BFAB
:10133C00BD4680BC704780B500AF00F07FF800BFA1
:10134C0080BD000080B500AF024800F0DBFF00BF9D
:10135C0080BD00BFA800002080B400AF00BFBD4618
:10136C0080BC7047FFF7F8FF0B480C490C4A002370
:10137C0002E0D458C4500433C4188C42F9D3094A3F
:10138C00094C002301E013600432A242FBD301F0AC
:10139C0005FBFFF75DFD70470000002024000020D6
:1013AC00442A000824000020F8000020FEE700007A
:1013BC0080B500AF084B1B68074A43F0100313605D
:1013CC00032000F023F90F2000F008F8FFF73CFF92
:1013DC000023184680BD00BF0020024080B582B0BB
:1013EC0000AF7860124B1A68124B1B7819464FF4F9
:1013FC007A73B3FBF1F3B2FBF3F3184600F03BF94D
:10140C000346002B01D001230EE07B680F2B0AD87A
:10141C00002279684FF0FF3000F003F9064A7B6830
:10142C001360002300E0012318460837BD4680BD39
:10143C0018000020200000201C00002080B400AF09
:10144C00054B1B781A46054B1B681344034A136063
:10145C0000BFBD4680BC704720000020F400002077
:10146C0080B400AF024B1B681846BD4680BC704769
:10147C00F400002080B485B000AF78607B6803F086
:10148C000703FB600C4BDB68BB60BA684FF6FF03CD
:10149C001340BB60FB681A02BB68134343F0BF6385
:1014AC0043F40033BB60044ABB68D36000BF1437FD
:1014BC00BD4680BC704700BF00ED00E080B400AFBB
:1014CC00044BDB681B0A03F007031846BD4680BCBF
:1014DC00704700BF00ED00E080B483B000AF03465E
:1014EC00FB7197F90730002B0BDBFB7903F01F0224
:1014FC00064997F907305B09012000FA02F241F81E
:10150C00232000BF0C37BD4680BC704700E100E0D3
:10151C0080B483B000AF03463960FB7197F9073094
:10152C00002B0ADB3B68DAB20C4997F90730120141
:10153C00D2B20B4483F800230AE03B68DAB20849C4
:10154C00FB7903F00F03043B1201D2B20B441A7661
:10155C0000BF0C37BD4680BC704700BF00E100E007
:10156C0000ED00E080B489B000AFF860B9607A603B
:10157C00FB6803F00703FB61FB69C3F10703042B52
:10158C0028BF0423BB61FB690433062B02D9FB691A
:10159C00033B00E000237B614FF0FF32BB6902FA92
:1015AC0003F3DA43BB681A407B699A404FF0FF3172
:1015BC007B6901FA03F3D9437B680B40134318464C
:1015CC002437BD4680BC704780B582B000AF7860D0
:1015DC007B68013BB3F1807F01D301230FE00A4A02
:1015EC007B68013B53600F214FF0FF30FFF790FFFA
:1015FC00054B00229A60044B07221A600023184600
:10160C000837BD4680BD00BF10E000E080B582B059
:10161C0000AF78607868FFF72DFF00BF0837BD4634
:10162C0080BD80B586B000AF0346B9607A60FB73AD
:10163C0000237B61FFF742FF78617A68B9687869AB
:10164C00FFF790FF024697F90F3011461846FFF747
:10165C005FFF00BF1837BD4680BD80B582B000AFBC
:10166C000346FB7197F907301846FFF735FF00BFAB
:10167C000837BD4680BD80B582B000AF7860786811
:10168C00FFF7A2FF034618460837BD4680BD000091
:10169C0080B48BB000AF7860396000237B6200238C
:1016AC003B6248E101227B6A02FA03F3FB613B686F
:1016BC001B68FA691340BB61BA69FB699A4240F036
:1016CC0037813B685B68A34A93425ED0A14A934240
:1016DC0075D8A14A934258D09F4A93426FD89F4ADB
:1016EC00934252D09D4A934269D89D4A93424CD022
:1016FC009B4A934263D89B4A934246D0994A934261
:10170C005DD8122B2AD8122B59D801A252F823F0EB
:10171C00971700087117000883170008C5170008F1
:10172C00CB170008CB170008CB170008CB17000805
:10173C00CB170008CB170008CB170008CB170008F5
:10174C00CB170008CB170008CB170008CB170008E5
:10175C00CB170008791700088D170008824A9342AE
:10176C0013D02CE03B68DB683B6229E03B68DB680C
:10177C0004333B6224E03B68DB6808333B621FE0C8
:10178C003B68DB680C333B621AE03B689B68002BC0
:10179C0002D104233B6213E03B689B68012B05D10B
:1017AC0008233B627B68FA691A6109E008233B62F3
:1017BC007B68FA695A6103E000233B6200E000BFDA
:1017CC00BB69FF2B01D87B6801E07B6804337B612C
:1017DC00BB69FF2B02D87B6A9B0002E07B6A083B4B
:1017EC009B003B617B691A680F213B6901FA03F38B
:1017FC00DB431A40396A3B6901FA03F31A437B69EC
:10180C001A603B685B6803F08053002B00F09080FB
:10181C00564B9B69554A43F001039361534B9B69AB
:10182C0003F00103BB60BB68514A7B6A9B0802331F
:10183C0052F82330FB607B6A03F003039B000F22FA
:10184C0002FA03F3DB43FA681340FB607B68494AF6
:10185C0093420DD07B68484A934207D07B68474A35
:10186C00934201D1022304E0032302E0012300E0B0
:10187C0000237A6A02F0030292009340FA68134341
:10188C00FB603B497B6A9B080233FA6841F82320D2
:10189C003B685B6803F48013002B06D0384B9A68C6
:1018AC003749BB6913438B6006E0354B9A68BB69BB
:1018BC00DB43334913408B603B685B6803F40013D4
:1018CC00002B06D02E4BDA682D49BB691343CB6035
:1018DC0006E02B4BDA68BB69DB4329491340CB602C
:1018EC003B685B6803F40033002B06D0244B5A682A
:1018FC002349BB6913434B6006E0214B5A68BB6913
:10190C00DB431F4913404B603B685B6803F4803337
:10191C00002B06D01A4B1A681949BB6913430B608C
:10192C0006E0174B1A68BB69DB43154913400B6083
:10193C007B6A01337B623B681A687B6A22FA03F389
:10194C00002B7FF4AFAE00BF00BF2C37BD4680BC70
:10195C00704700BF00003210000031100000221050
:10196C0000002110000012100000111000100240A5
:10197C000000014000080140000C01400010014033
:10198C000004014080B485B000AF78600B467B80CA
:10199C007B689A687B881340002B02D00123FB7371
:1019AC0001E00023FB73FB7B18461437BD4680BC5B
:1019BC00704780B483B000AF78600B467B801346D1
:1019CC007B707B78002B03D07A887B681A6103E0EC
:1019DC007B881A047B681A6100BF0C37BD4680BC3B
:1019EC00704780B485B000AF78600B467B807B6815
:1019FC00DB68FB607A88FB6813401A04FB68D943E8
:101A0C007B880B401A437B681A6100BF1437BD46B4
:101A1C0080BC704780B586B000AF78607B68002BC7
:101A2C0001D101236CE27B681B6803F00103002BDE
:101A3C0000F08780924B5B6803F00C03042B0CD0F6
:101A4C008F4B5B6803F00C03082B12D18C4B5B683B
:101A5C0003F48033B3F5803F0BD1894B1B6803F43F
:101A6C000033002B6CD07B685B68002B68D10123A2
:101A7C0046E27B685B68B3F5803F06D1804B1B6800
:101A8C007F4A43F4803313602EE07B685B68002B45
:101A9C000CD17B4B1B687A4A23F480331360784B50
:101AAC001B68774A23F4802313601DE07B685B6816
:101ABC00B3F5A02F0CD1724B1B68714A43F48023F1
:101ACC0013606F4B1B686E4A43F4803313600BE05A
:101ADC006B4B1B686A4A23F480331360684B1B689A
:101AEC00674A23F4802313607B685B68002B13D058
:101AFC00FFF7B6FC386108E0FFF7B2FC02463B6921
:101B0C00D31A642B01D90323FAE15D4B1B6803F450
:101B1C000033002BF0D014E0FFF7A2FC386108E092
:101B2C00FFF79EFC02463B69D31A642B01D90323B1
:101B3C00E6E1534B1B6803F40033002BF0D100E0BB
:101B4C0000BF7B681B6803F00203002B63D04C4B77
:101B5C005B6803F00C03002B0BD0494B5B6803F064
:101B6C000C03082B1CD1464B5B6803F48033002B11
:101B7C0016D1434B1B6803F00203002B05D07B6886
:101B8C001B69012B01D00123BAE13D4B1B6823F0EB
:101B9C00F8027B685B69DB00394913430B603AE060
:101BAC007B681B69002B20D0364B01221A60FFF793
:101BBC0057FC386108E0FFF753FC02463B69D31A27
:101BCC00022B01D903239BE12D4B1B6803F002036D
:101BDC00002BF0D02A4B1B6823F0F8027B685B6962
:101BEC00DB00274913430B6015E0264B00221A60DB
:101BFC00FFF736FC386108E0FFF732FC02463B6920
:101C0C00D31A022B01D903237AE11D4B1B6803F075
:101C1C000203002BF0D17B681B6803F00803002B38
:101C2C003AD07B689B69002B19D0174B01221A60A4
:101C3C00FFF716FC386108E0FFF712FC02463B691F
:101C4C00D31A022B01D903235AE10D4B5B6A03F023
:101C5C000203002BF0D0012000F09AFA1CE00A4B92
:101C6C0000221A60FFF7FCFB38610FE0FFF7F8FB6E
:101C7C0002463B69D31A022B08D9032340E100BF6B
:101C8C000010024000004242800442429E4B5B6ABC
:101C9C0003F00203002BE9D17B681B6803F00403FB
:101CAC00002B00F0A6800023FB75974BDB6903F03B
:101CBC008053002B0DD1944BDB69934A43F0805336
:101CCC00D361914BDB6903F08053BB60BB6801238C
:101CDC00FB758E4B1B6803F48073002B18D18B4B58
:101CEC001B688A4A43F480731360FFF7B9FB3861B1
:101CFC0008E0FFF7B5FB02463B69D31A642B01D908
:101D0C000323FDE0814B1B6803F48073002BF0D0A0
:101D1C007B68DB68012B06D17B4B1B6A7A4A43F04C
:101D2C00010313622DE07B68DB68002B0CD1764B32
:101D3C001B6A754A23F001031362734B1B6A724AC8
:101D4C0023F0040313621CE07B68DB68052B0CD1C9
:101D5C006D4B1B6A6C4A43F0040313626A4B1B6A9B
:101D6C00694A43F0010313620BE0674B1B6A664A36
:101D7C0023F001031362644B1B6A634A23F00403D0
:101D8C0013627B68DB68002B15D0FFF769FB3861A9
:101D9C000AE0FFF765FB02463B69D31A41F2883231
:101DAC00934201D90323ABE0574B1B6A03F00203A8
:101DBC00002BEED014E0FFF753FB38610AE0FFF77D
:101DCC004FFB02463B69D31A41F28832934201D948
:101DDC00032395E04C4B1B6A03F00203002BEED15E
:101DEC00FB7D012B05D1484BDB69474A23F080531F
:101DFC00D3617B68DB69002B00F08180424B5B6810
:101E0C0003F00C03082B61D07B68DB69022B46D1F5
:101E1C003F4B00221A60FFF723FB386108E0FFF705
:101E2C001FFB02463B69D31A022B01D9032367E03F
:101E3C00354B1B6803F00073002BF0D17B681B6AD9
:101E4C00B3F5803F08D1304B5B6823F400327B68DC
:101E5C009B682D4913434B602B4B5B6823F4741226
:101E6C007B68196A7B685B6A0B43274913434B6099
:101E7C00274B01221A60FFF7F3FA386108E0FFF7ED
:101E8C00EFFA02463B69D31A022B01D9032337E040
:101E9C001D4B1B6803F00073002BF0D02FE01C4B84
:101EAC0000221A60FFF7DCFA386108E0FFF7D8FA75
:101EBC0002463B69D31A022B01D9032320E0124BB3
:101ECC001B6803F00073002BF0D118E07B68DB6912
:101EDC00012B01D1012313E00B4B5B68FB60FB680A
:101EEC0003F480327B681B6A9A4206D1FB6803F4C8
:101EFC0070127B685B6A9A4201D0012300E00023D8
:101F0C0018461837BD4680BD0010024000700040D6
:101F1C006000424280B584B000AF786039607B6865
:101F2C00002B01D10123D0E06A4B1B6803F007039F
:101F3C003A689A4210D9674B1B6823F0070265492F
:101F4C003B6813430B60634B1B6803F007033A6851
:101F5C009A4201D00123B8E07B681B6803F00203AE
:101F6C00002B20D07B681B6803F00403002B05D0EA
:101F7C00594B5B68584A43F4E06353607B681B68B9
:101F8C0003F00803002B05D0534B5B68524A43F413
:101F9C0060535360504B5B6823F0F0027B689B6886
:101FAC004D4913434B607B681B6803F00103002B06
:101FBC0040D07B685B68012B07D1474B1B6803F44F
:101FCC000033002B15D101237FE07B685B68022B6B
:101FDC0007D1414B1B6803F00073002B09D101237F
:101FEC0073E03D4B1B6803F00203002B01D101236E
:101FFC006BE0394B5B6823F003027B685B68364906
:10200C0013434B60FFF72CFAF8600AE0FFF728FA4D
:10201C000246FB68D31A41F28832934201D903235A
:10202C0053E02D4B5B6803F00C027B685B689B00F4
:10203C009A42EBD1274B1B6803F007033A689A428C
:10204C0010D2244B1B6823F0070222493B68134330
:10205C000B60204B1B6803F007033A689A4201D0CF
:10206C00012332E07B681B6803F00403002B08D0CB
:10207C00194B5B6823F4E0627B68DB6816491343F9
:10208C004B607B681B6803F00803002B09D0124BD4
:10209C005B6823F460527B681B69DB000E491343B9
:1020AC004B6000F021F802460B4B5B681B0903F0F8
:1020BC000F030A49CB5C22FA03F3094A1360094B5C
:1020CC001B681846FFF78AF9002318461037BD46DF
:1020DC0080BD00BF0020024000100240182A0008FA
:1020EC00180000201C00002080B487B000AF002333
:1020FC00FB600023BB6000237B6100237B6000231B
:10210C003B611E4B5B68FB60FB6803F00C03042B0C
:10211C0002D0082B03D027E0194B3B6127E0FB686A
:10212C009B0C03F00F03174AD35C7B60FB6803F432
:10213C008033002B10D0114B5B685B0C03F0010358
:10214C00114AD35CBB607B680D4A02FB03F2BB688F
:10215C00B2FBF3F37B6104E07B680C4A02FB03F3F4
:10216C007B617B693B6102E0054B3B6100BF3B69D6
:10217C0018461C37BD4680BC704700BF001002409B
:10218C0000127A00282A0008382A000800093D00AD
:10219C0080B485B000AF78600A4B1B680A4AA2FB7A
:1021AC0003235B0A7A6802FB03F3FB6000BFFB6846
:1021BC005A1EFA60002BF9D100BF00BF1437BD4680
:1021CC0080BC704718000020D34D621080B582B0DF
:1021DC0000AF78607B68002B01D1012341E07B6864
:1021EC0093F83D30DBB2002B06D17B68002283F8DC
:1021FC003C207868FFF75AF87B68022283F83D2070
:10220C007B681A687B6804331946104600F06EFA36
:10221C007B68012283F846207B68012283F83E20EC
:10222C007B68012283F83F207B68012283F84020E1
:10223C007B68012283F841207B68012283F84220CD
:10224C007B68012283F843207B68012283F84420B9
:10225C007B68012283F845207B68012283F83D20AE
:10226C00002318460837BD4680BD000080B485B0F9
:10227C0000AF78607B6893F83D30DBB2012B01D066
:10228C00012335E07B68022283F83D207B681B68C4
:10229C00DA687B681B6842F00102DA607B681B68B5
:1022AC00164A934209D07B681B68B3F1804F04D067
:1022BC007B681B68124A934211D17B681B689B6830
:1022CC0003F00703FB60FB68062B10D07B681B68D0
:1022DC001A687B681B6842F001021A6007E07B6891
:1022EC001B681A687B681B6842F001021A600023A5
:1022FC0018461437BD4680BC704700BF002C014007
:10230C000004004080B582B000AF78607B681B6829
:10231C001B6903F00203022B22D17B681B68DB686C
:10232C0003F00203022B1BD17B681B686FF00202C7
:10233C001A617B6801221A777B681B689B6903F022
:10234C000303002B03D0786800F0B4F905E078683B
:10235C0000F0A7F9786800F0B6F97B6800221A77CC
:10236C007B681B681B6903F00403042B22D17B6878
:10237C001B68DB6803F00403042B1BD17B681B6810
:10238C006FF004021A617B6802221A777B681B6863
:10239C009B6903F44073002B03D0786800F08AF932
:1023AC0005E0786800F07DF9786800F08CF97B68BE
:1023BC0000221A777B681B681B6903F00803082B43
:1023CC0022D17B681B68DB6803F00803082B1BD148
:1023DC007B681B686FF008021A617B6804221A770D
:1023EC007B681B68DB6903F00303002B03D0786860
:1023FC0000F060F905E0786800F053F9786800F0B7
:10240C0062F97B6800221A777B681B681B6903F0F2
:10241C001003102B22D17B681B68DB6803F01003C0
:10242C00102B1BD17B681B686FF010021A617B6844
:10243C0008221A777B681B68DB6903F44073002B56
:10244C0003D0786800F036F905E0786800F029F9D7
:10245C00786800F038F97B6800221A777B681B6873
:10246C001B6903F00103012B0ED17B681B68DB6831
:10247C0003F00103012B07D17B681B686FF001028D
:10248C001A617868FEF716FE7B681B681B6903F0FF
:10249C008003802B0ED17B681B68DB6803F0800304
:1024AC00802B07D17B681B686FF080021A617868FB
:1024BC0000F06BFA7B681B681B6903F04003402B30
:1024CC000ED17B681B68DB6803F04003402B07D1FF
:1024DC007B681B686FF040021A61786800F0FCF8AA
:1024EC007B681B681B6903F02003202B0ED17B68D3
:1024FC001B68DB6803F02003202B07D17B681B686B
:10250C006FF020021A61786800F036FA00BF0837C5
:10251C00BD4680BD80B584B000AF786039600023C3
:10252C00FB737B6893F83C30012B01D10223B4E0A0
:10253C007B68012283F83C207B68022283F83D20D3
:10254C007B681B689B68BB60BB6823F07703BB6030
:10255C00BB6823F47F43BB607B681B68BA689A60D6
:10256C003B681B68B3F5005F3ED0B3F5005F00F22B
:10257C008780B3F5805F00F08680B3F5805F7FD8ED
:10258C00702B1AD0702B7BD8602B50D0602B77D847
:10259C00502B3CD0502B73D8402B58D0402B6FD89D
:1025AC00302B64D0302B6BD8202B60D0202B67D8ED
:1025BC00002B5CD0102B5AD062E07B6818683B680B
:1025CC0099683B685A683B68DB6800F05EF97B6889
:1025DC001B689B68BB60BB6843F07703BB607B6880
:1025EC001B68BA689A604FE07B6818683B6899680A
:1025FC003B685A683B68DB6800F047F97B681B68EE
:10260C009A687B681B6842F480429A603CE07B6865
:10261C0018683B6859683B68DB681A4600F0BEF8DE
:10262C007B681B685021184600F015F92CE07B687C
:10263C0018683B6859683B68DB681A4600F0DCF8A0
:10264C007B681B686021184600F005F91CE07B686C
:10265C0018683B6859683B68DB681A4600F09EF8BE
:10266C007B681B684021184600F0F5F80CE07B688D
:10267C001A683B681B681946104600F0ECF803E03A
:10268C000123FB7300E000BF7B68012283F83D202F
:10269C007B68002283F83C20FB7B18461037BD4634
:1026AC0080BD80B483B000AF786000BF0C37BD46EE
:1026BC0080BC704780B483B000AF786000BF0C372B
:1026CC00BD4680BC704780B483B000AF786000BF5B
:1026DC000C37BD4680BC704780B483B000AF7860C7
:1026EC0000BF0C37BD4680BC7047000080B485B07D
:1026FC0000AF786039607B681B68FB607B68254A9B
:10270C00934207D07B68B3F1804F03D07B68224A99
:10271C00934208D1FB6823F07003FB603B685B6855
:10272C00FA681343FB607B681A4A934207D07B68B4
:10273C00B3F1804F03D07B68174A934208D1FB68F2
:10274C0023F44073FB603B68DB68FA681343FB605F
:10275C00FB6823F080023B685B691343FB607B687A
:10276C00FA681A603B689A687B68DA623B681A6898
:10277C007B689A627B68074A934203D13B681A696B
:10278C007B681A637B6801225A6100BF1437BD460F
:10279C0080BC7047002C01400004004080B487B01E
:1027AC0000AFF860B9607A60FB681B6A7B61FB68FC
:1027BC001B6A23F00102FB681A62FB689B693B6190
:1027CC003B6923F0F0033B617B681B013A691343BF
:1027DC003B617B6923F00A037B617A69BB68134315
:1027EC007B61FB683A699A61FB687A691A6200BF7F
:1027FC001C37BD4680BC704780B487B000AFF86012
:10280C00B9607A60FB681B6A7B61FB681B6A23F00A
:10281C001002FB681A62FB689B693B613B6923F4FD
:10282C0070433B617B681B033A6913433B617B69D3
:10283C0023F0A0037B61BB681B017A6913437B61A6
:10284C00FB683A699A61FB687A691A6200BF1C37A7
:10285C00BD4680BC704780B485B000AF78603960ED
:10286C007B689B68FB60FB6823F07003FB603A6835
:10287C00FB68134343F00703FB607B68FA689A60BC
:10288C0000BF1437BD4680BC704780B487B000AF22
:10289C00F860B9607A603B60FB689B687B617B6920
:1028AC0023F47F437B613B681A027B681A43BB6845
:1028BC0013437A6913437B61FB687A699A6000BFA2
:1028CC001C37BD4680BC704780B485B000AF7860C3
:1028DC0039607B6893F83C30012B01D1022341E035
:1028EC007B68012283F83C207B68022283F83D2020
:1028FC007B681B685B68FB607B681B689B68BB60C4
:10290C00FB6823F07003FB603B681B68FA68134399
:10291C00FB607B681B68FA685A607B681B68144A0A
:10292C00934209D07B681B68B3F1804F04D07B685D
:10293C001B68104A93420CD1BB6823F08003BB6028
:10294C003B685B68BA681343BB607B681B68BA68FA
:10295C009A607B68012283F83D207B68002283F813
:10296C003C20002318461437BD4680BC704700BF7E
:10297C00002C01400004004080B483B000AF7860AC
:10298C0000BF0C37BD4680BC704780B483B000AF2D
:10299C00786000BF0C37BD4680BC704770B5002610
:1029AC000C4D0D4C641BA410A64209D100F022F86A
:1029BC0000260A4D0A4C641BA410A64205D170BD1A
:1029CC0055F8043B98470136EEE755F8043B984719
:1029DC000136F2E73C2A00083C2A00083C2A000891
:1029EC00402A000803460244934200D1704703F882
:1029FC00011BF9E7F8B500BFF8BC08BC9E46704750
:0C2A0C00F8B500BFF8BC08BC9E4670473F
:102A18000000000000000000010203040607080986
:102A280002030405060708090A0B0C0D0E0F101007
:042A38000102000097
:042A3C00310100085C
:042A40000D0100087C
:102A4400FA00000000100020004000000500000013
:102A540002000000030000000024F4001000000045
:042A6400010000006D
:04000005080013716B
:00000001FF
